{
  "abi": [
    {
      "type": "constructor",
      "inputs": [],
      "stateMutability": "nonpayable"
    },
    {
      "type": "receive",
      "stateMutability": "payable"
    },
    {
      "type": "function",
      "name": "VERSION",
      "inputs": [],
      "outputs": [
        {
          "name": "",
          "type": "string",
          "internalType": "string"
        }
      ],
      "stateMutability": "view"
    },
    {
      "type": "function",
      "name": "addOwnerWithThreshold",
      "inputs": [
        {
          "name": "owner",
          "type": "address",
          "internalType": "address"
        },
        {
          "name": "_threshold",
          "type": "uint256",
          "internalType": "uint256"
        }
      ],
      "outputs": [],
      "stateMutability": "nonpayable"
    },
    {
      "type": "function",
      "name": "changeThreshold",
      "inputs": [
        {
          "name": "_threshold",
          "type": "uint256",
          "internalType": "uint256"
        }
      ],
      "outputs": [],
      "stateMutability": "nonpayable"
    },
    {
      "type": "function",
      "name": "checkNSignatures",
      "inputs": [
        {
          "name": "executor",
          "type": "address",
          "internalType": "address"
        },
        {
          "name": "dataHash",
          "type": "bytes32",
          "internalType": "bytes32"
        },
        {
          "name": "signatures",
          "type": "bytes",
          "internalType": "bytes"
        },
        {
          "name": "requiredSignatures",
          "type": "uint256",
          "internalType": "uint256"
        }
      ],
      "outputs": [],
      "stateMutability": "view"
    },
    {
      "type": "function",
      "name": "checkSignatures",
      "inputs": [
        {
          "name": "executor",
          "type": "address",
          "internalType": "address"
        },
        {
          "name": "dataHash",
          "type": "bytes32",
          "internalType": "bytes32"
        },
        {
          "name": "signatures",
          "type": "bytes",
          "internalType": "bytes"
        }
      ],
      "outputs": [],
      "stateMutability": "view"
    },
    {
      "type": "function",
      "name": "domainSeparator",
      "inputs": [],
      "outputs": [
        {
          "name": "domainHash",
          "type": "bytes32",
          "internalType": "bytes32"
        }
      ],
      "stateMutability": "view"
    },
    {
      "type": "function",
      "name": "execTransaction",
      "inputs": [
        {
          "name": "to",
          "type": "address",
          "internalType": "address"
        },
        {
          "name": "value",
          "type": "uint256",
          "internalType": "uint256"
        },
        {
          "name": "data",
          "type": "bytes",
          "internalType": "bytes"
        },
        {
          "name": "operation",
          "type": "uint8",
          "internalType": "enum SafeMockSingleton.Operation"
        },
        {
          "name": "safeTxGas",
          "type": "uint256",
          "internalType": "uint256"
        },
        {
          "name": "baseGas",
          "type": "uint256",
          "internalType": "uint256"
        },
        {
          "name": "gasPrice",
          "type": "uint256",
          "internalType": "uint256"
        },
        {
          "name": "gasToken",
          "type": "address",
          "internalType": "address"
        },
        {
          "name": "refundReceiver",
          "type": "address",
          "internalType": "address payable"
        },
        {
          "name": "signatures",
          "type": "bytes",
          "internalType": "bytes"
        }
      ],
      "outputs": [
        {
          "name": "success",
          "type": "bool",
          "internalType": "bool"
        }
      ],
      "stateMutability": "payable"
    },
    {
      "type": "function",
      "name": "getMessageHash",
      "inputs": [
        {
          "name": "message",
          "type": "bytes",
          "internalType": "bytes"
        }
      ],
      "outputs": [
        {
          "name": "",
          "type": "bytes32",
          "internalType": "bytes32"
        }
      ],
      "stateMutability": "view"
    },
    {
      "type": "function",
      "name": "getOwners",
      "inputs": [],
      "outputs": [
        {
          "name": "out",
          "type": "address[]",
          "internalType": "address[]"
        }
      ],
      "stateMutability": "view"
    },
    {
      "type": "function",
      "name": "getThreshold",
      "inputs": [],
      "outputs": [
        {
          "name": "",
          "type": "uint256",
          "internalType": "uint256"
        }
      ],
      "stateMutability": "view"
    },
    {
      "type": "function",
      "name": "getTransactionHash",
      "inputs": [
        {
          "name": "to",
          "type": "address",
          "internalType": "address"
        },
        {
          "name": "value",
          "type": "uint256",
          "internalType": "uint256"
        },
        {
          "name": "data",
          "type": "bytes",
          "internalType": "bytes"
        },
        {
          "name": "operation",
          "type": "uint8",
          "internalType": "enum SafeMockSingleton.Operation"
        },
        {
          "name": "safeTxGas",
          "type": "uint256",
          "internalType": "uint256"
        },
        {
          "name": "baseGas",
          "type": "uint256",
          "internalType": "uint256"
        },
        {
          "name": "gasPrice",
          "type": "uint256",
          "internalType": "uint256"
        },
        {
          "name": "gasToken",
          "type": "address",
          "internalType": "address"
        },
        {
          "name": "refundReceiver",
          "type": "address",
          "internalType": "address"
        },
        {
          "name": "_nonce",
          "type": "uint256",
          "internalType": "uint256"
        }
      ],
      "outputs": [
        {
          "name": "txHash",
          "type": "bytes32",
          "internalType": "bytes32"
        }
      ],
      "stateMutability": "view"
    },
    {
      "type": "function",
      "name": "isOwner",
      "inputs": [
        {
          "name": "owner",
          "type": "address",
          "internalType": "address"
        }
      ],
      "outputs": [
        {
          "name": "",
          "type": "bool",
          "internalType": "bool"
        }
      ],
      "stateMutability": "view"
    },
    {
      "type": "function",
      "name": "isValidSignature",
      "inputs": [
        {
          "name": "_dataHash",
          "type": "bytes32",
          "internalType": "bytes32"
        },
        {
          "name": "_signature",
          "type": "bytes",
          "internalType": "bytes"
        }
      ],
      "outputs": [
        {
          "name": "",
          "type": "bytes4",
          "internalType": "bytes4"
        }
      ],
      "stateMutability": "view"
    },
    {
      "type": "function",
      "name": "nonce",
      "inputs": [],
      "outputs": [
        {
          "name": "",
          "type": "uint256",
          "internalType": "uint256"
        }
      ],
      "stateMutability": "view"
    },
    {
      "type": "function",
      "name": "removeOwner",
      "inputs": [
        {
          "name": "prevOwner",
          "type": "address",
          "internalType": "address"
        },
        {
          "name": "owner",
          "type": "address",
          "internalType": "address"
        },
        {
          "name": "_threshold",
          "type": "uint256",
          "internalType": "uint256"
        }
      ],
      "outputs": [],
      "stateMutability": "nonpayable"
    },
    {
      "type": "function",
      "name": "setup",
      "inputs": [
        {
          "name": "_owners",
          "type": "address[]",
          "internalType": "address[]"
        },
        {
          "name": "_threshold",
          "type": "uint256",
          "internalType": "uint256"
        },
        {
          "name": "",
          "type": "address",
          "internalType": "address"
        },
        {
          "name": "",
          "type": "bytes",
          "internalType": "bytes"
        },
        {
          "name": "",
          "type": "address",
          "internalType": "address"
        },
        {
          "name": "",
          "type": "address",
          "internalType": "address"
        },
        {
          "name": "",
          "type": "uint256",
          "internalType": "uint256"
        },
        {
          "name": "",
          "type": "address",
          "internalType": "address payable"
        }
      ],
      "outputs": [],
      "stateMutability": "nonpayable"
    },
    {
      "type": "function",
      "name": "signedMessages",
      "inputs": [
        {
          "name": "",
          "type": "bytes32",
          "internalType": "bytes32"
        }
      ],
      "outputs": [
        {
          "name": "",
          "type": "uint256",
          "internalType": "uint256"
        }
      ],
      "stateMutability": "view"
    },
    {
      "type": "function",
      "name": "swapOwner",
      "inputs": [
        {
          "name": "prevOwner",
          "type": "address",
          "internalType": "address"
        },
        {
          "name": "oldOwner",
          "type": "address",
          "internalType": "address"
        },
        {
          "name": "newOwner",
          "type": "address",
          "internalType": "address"
        }
      ],
      "outputs": [],
      "stateMutability": "nonpayable"
    },
    {
      "type": "event",
      "name": "AddedOwner",
      "inputs": [
        {
          "name": "owner",
          "type": "address",
          "indexed": true,
          "internalType": "address"
        }
      ],
      "anonymous": false
    },
    {
      "type": "event",
      "name": "ChangedThreshold",
      "inputs": [
        {
          "name": "threshold",
          "type": "uint256",
          "indexed": false,
          "internalType": "uint256"
        }
      ],
      "anonymous": false
    },
    {
      "type": "event",
      "name": "ExecutionFailure",
      "inputs": [
        {
          "name": "txHash",
          "type": "bytes32",
          "indexed": true,
          "internalType": "bytes32"
        },
        {
          "name": "payment",
          "type": "uint256",
          "indexed": false,
          "internalType": "uint256"
        }
      ],
      "anonymous": false
    },
    {
      "type": "event",
      "name": "ExecutionSuccess",
      "inputs": [
        {
          "name": "txHash",
          "type": "bytes32",
          "indexed": true,
          "internalType": "bytes32"
        },
        {
          "name": "payment",
          "type": "uint256",
          "indexed": false,
          "internalType": "uint256"
        }
      ],
      "anonymous": false
    },
    {
      "type": "event",
      "name": "RemovedOwner",
      "inputs": [
        {
          "name": "owner",
          "type": "address",
          "indexed": true,
          "internalType": "address"
        }
      ],
      "anonymous": false
    },
    {
      "type": "event",
      "name": "SafeSetup",
      "inputs": [
        {
          "name": "initiator",
          "type": "address",
          "indexed": true,
          "internalType": "address"
        },
        {
          "name": "owners",
          "type": "address[]",
          "indexed": false,
          "internalType": "address[]"
        },
        {
          "name": "threshold",
          "type": "uint256",
          "indexed": false,
          "internalType": "uint256"
        },
        {
          "name": "initializer",
          "type": "address",
          "indexed": false,
          "internalType": "address"
        },
        {
          "name": "fallbackHandler",
          "type": "address",
          "indexed": false,
          "internalType": "address"
        }
      ],
      "anonymous": false
    }
  ],
  "bytecode": {
    "object": "0x6080604052348015600e575f5ffd5b506001600355611ed3806100215f395ff3fe6080604052600436106100ea575f3560e01c8063affed0e011610083578063affed0e01461024c578063b63e800d14610261578063d8d11f7814610280578063e318b52b1461029f578063e75235b8146102be578063f698da25146102d2578063f855438b146102e6578063f8dc5dd914610305578063ffa1ad7414610324575f5ffd5b80630a1028c4146100f55780630d582f13146101275780631626ba7e146101485780631fcac7f3146101805780632f54bf6e1461019f5780635ae6bd37146101ce578063694e80c3146101f95780636a76120214610218578063a0e67e2b1461022b575f5ffd5b366100f157005b5f5ffd5b348015610100575f5ffd5b5061011461010f3660046116f1565b610361565b6040519081526020015b60405180910390f35b348015610132575f5ffd5b50610146610141366004611751565b61041e565b005b348015610153575f5ffd5b506101676101623660046117bf565b6105b6565b6040516001600160e01b0319909116815260200161011e565b34801561018b575f5ffd5b5061014661019a366004611806565b610686565b3480156101aa575f5ffd5b506101be6101b9366004611862565b610913565b604051901515815260200161011e565b3480156101d9575f5ffd5b506101146101e8366004611884565b60056020525f908152604090205481565b348015610204575f5ffd5b50610146610213366004611884565b61094c565b6101be6102263660046118a9565b6109a1565b348015610236575f5ffd5b5061023f610b33565b60405161011e9190611979565b348015610257575f5ffd5b5061011460045481565b34801561026c575f5ffd5b5061014661027b3660046119c4565b610c20565b34801561028b575f5ffd5b5061011461029a366004611ab3565b610e9f565b3480156102aa575f5ffd5b506101466102b9366004611b70565b610f3c565b3480156102c9575f5ffd5b50600354610114565b3480156102dd575f5ffd5b506101146110f3565b3480156102f1575f5ffd5b50610146610300366004611bb8565b611130565b348015610310575f5ffd5b5061014661031f366004611c0c565b61117a565b34801561032f575f5ffd5b50610354604051806040016040528060058152602001640312e352e360dc1b81525081565b60405161011e9190611c78565b5f5f7f60b3cbf8b4a223d68d641b3b6ddf9a298e7f33710cf3d3a9d1146b5a6150fbca5f1b83805190602001206040516020016103a8929190918252602082015260400190565b60408051601f1981840301815291905280516020909101209050601960f81b600160f81b6103d46110f3565b6040516001600160f81b0319938416602082015292909116602183015260228201526042810182905260620160405160208183030381529060405280519060200120915050919050565b6001600160a01b0382161580159061044057506001600160a01b038216600114155b801561045557506001600160a01b0382163014155b61047a5760405162461bcd60e51b815260040161047190611c8a565b60405180910390fd5b6001600160a01b038281165f9081526001602052604090205416156104b15760405162461bcd60e51b815260040161047190611ca9565b600160208190527fcc69885fda6bcc1a4ace058b4a62bf5e179ea78fd58a1ccd71c22cc9b688792f80546001600160a01b038581165f818152604081208054939094166001600160a01b03199384161790935593825282541690921790556002805490919061051f90611cdc565b909155506040516001600160a01b038316907f9465fa0c962cc76958e6373a993326400c1c94f8be2fe3a952adfa7f60b2ea26905f90a280600354146105b2575f8111801561057057506002548111155b61058c5760405162461bcd60e51b815260040161047190611cf4565b60038190556040518181525f516020611e7e5f395f51905f529060200160405180910390a15b5050565b5f5f6105e2856040516020016105ce91815260200190565b604051602081830303815290604052610361565b90505f839003610635575f8181526005602052604081205490036106305760405162461bcd60e51b8152602060048201526005602482015264475330323760d81b6044820152606401610471565b610675565b6106755f8286868080601f0160208091040260200160405190810160405280939291908181526020018383808284375f9201919091525061113092505050565b50630b135d3f60e11b949350505050565b610691816041611d13565b825110156106c95760405162461bcd60e51b8152602060048201526005602482015264047533032360dc1b6044820152606401610471565b5f80808080805b8681101561090757604181028801602081015160408201516060909201515f1a95509350915060ff84165f03610758579193508391610710876041611d13565b8210156107475760405162461bcd60e51b8152602060048201526005602482015264475330323160d81b6044820152606401610471565b610753858a8a856112f1565b610877565b601e8460ff16111561081a576040517f19457468657265756d205369676e6564204d6573736167653a0a3332000000006020820152603c81018a9052600190605c01604051602081830303815290604052805190602001206004866107bd9190611d2a565b604080515f8152602081018083529390935260ff90911690820152606081018590526080810184905260a0016020604051602081039080840390855afa158015610809573d5f5f3e3d5ffd5b505050602060405103519450610877565b604080515f8152602081018083528b905260ff861691810191909152606081018490526080810183905260019060a0016020604051602081039080840390855afa15801561086a573d5f5f3e3d5ffd5b5050506020604051035194505b856001600160a01b0316856001600160a01b03161180156108b057506001600160a01b038581165f908152600160205260409020541615155b80156108c657506001600160a01b038516600114155b6108fa5760405162461bcd60e51b815260206004820152600560248201526423a998191b60d91b6044820152606401610471565b93945084936001016106d0565b50505050505050505050565b5f6001600160a01b03821660011480159061094657506001600160a01b038281165f908152600160205260409020541615155b92915050565b5f8111801561095d57506002548111155b6109795760405162461bcd60e51b815260040161047190611cf4565b60038190556040518181525f516020611e7e5f395f51905f529060200160405180910390a150565b5f84156109eb5760405162461bcd60e51b815260206004820152601860248201527706d6f636b3a206761735072696365206d75737420626520360441b6044820152606401610471565b5f610a018d8d8d8d8d8d8d8d8d8d600454610e9f565b6004805460010190559050610a17338285611130565b5f8815610a245788610a32565b6109c45a610a329190611d43565b9050610a848e8e8e8e8080601f0160208091040260200160405190810160405280939291908181526020018383808284375f81840152601f19601f820116905080830192505050505050508d856114aa565b925082158015610a92575088155b15610aa2576040513d5f823e3d81fd5b8215610ae757817f442e715f626346e8c54381002da614f62bee8d27386535b2521ec8540898556e5f604051610ada91815260200190565b60405180910390a2610b22565b817f23428b18acfb3ea64b08dc0c1d296ea9c09702c09083ca5272e64d115b687d235f604051610b1991815260200190565b60405180910390a25b50509b9a5050505050505050505050565b60606002546001600160401b03811115610b4f57610b4f611654565b604051908082528060200260200182016040528015610b78578160200160208202803683370190505b5060015f8181526020919091527fcc69885fda6bcc1a4ace058b4a62bf5e179ea78fd58a1ccd71c22cc9b688792f549192506001600160a01b03909116905b6001600160a01b038216600114610c1b57818382610bd481611cdc565b935081518110610be657610be6611d56565b6001600160a01b039283166020918202929092018101919091529281165f908152600190935260409092205490911690610bb7565b505090565b60035415610c665760405162461bcd60e51b8152602060048201526013602482015272185b1c9958591e481a5b9a5d1a585b1a5e9959606a1b6044820152606401610471565b88610ca25760405162461bcd60e51b815260206004820152600c60248201526b6f776e65727320656d70747960a01b6044820152606401610471565b5f88118015610cb15750888811155b610ced5760405162461bcd60e51b815260206004820152600d60248201526c189859081d1a1c995cda1bdb19609a1b6044820152606401610471565b60015f5b8a811015610e1d575f8c8c83818110610d0c57610d0c611d56565b9050602002016020810190610d219190611862565b90506001600160a01b03811615801590610d4557506001600160a01b038116600114155b8015610d5a57506001600160a01b0381163014155b610d925760405162461bcd60e51b81526020600482015260096024820152683130b21037bbb732b960b91b6044820152606401610471565b6001600160a01b038181165f908152600160205260409020541615610de55760405162461bcd60e51b8152602060048201526009602482015268323ab81037bbb732b960b91b6044820152606401610471565b6001600160a01b039283165f90815260016020819052604090912080546001600160a01b031916948316949094179093559101610cf1565b506001600160a01b0381165f90815260016020819052604080832080546001600160a01b03191690921790915560028c905560038b90555133917f141df868a6331af528e38c83b7aa03edc19be66e37ae67f9285bf4f8e3c6a1a891610e8a918f918f918f918190611d6a565b60405180910390a25050505050505050505050565b5f5f610ea96110f3565b90506040518a8c8237998a207fbb8310d486368db6bd6f849402fdd73ad53d316b5a4b2644ad6efe0f941286d88b5260208b019d8e5260408b019c8d5260608b015260808a01989098525060a088019590955260c087019390935260e086019190915261010085015261012084015261014083015261016082209093526119018152919092526042601e90910120919050565b6001600160a01b03811615801590610f5e57506001600160a01b038116600114155b8015610f7357506001600160a01b0381163014155b610f8f5760405162461bcd60e51b815260040161047190611c8a565b6001600160a01b038181165f908152600160205260409020541615610fc65760405162461bcd60e51b815260040161047190611ca9565b6001600160a01b03821615801590610fe857506001600160a01b038216600114155b6110045760405162461bcd60e51b815260040161047190611c8a565b6001600160a01b038381165f9081526001602052604090205481169083161461103f5760405162461bcd60e51b815260040161047190611dd5565b6001600160a01b038281165f81815260016020526040808220805486861680855283852080549288166001600160a01b03199384161790559589168452828420805482169096179095558383528054909416909355915190917ff8d49fc529812e9a7c5c50e69c20f0dccc0db8fa95c98bc58cc9a4f1c1299eaf91a26040516001600160a01b038216907f9465fa0c962cc76958e6373a993326400c1c94f8be2fe3a952adfa7f60b2ea26905f90a2505050565b5f6040517f47e79534a245952e8b16893a336b85a3d9ea9fa8c573f3d803afb92a7946921881524660208201523060408201526060812091505090565b600354806111685760405162461bcd60e51b8152602060048201526005602482015264475330303160d81b6044820152606401610471565b61117484848484610686565b50505050565b8060025f815461118990611df4565b918290555010156111ac5760405162461bcd60e51b815260040161047190611cf4565b6001600160a01b038216158015906111ce57506001600160a01b038216600114155b6111ea5760405162461bcd60e51b815260040161047190611c8a565b6001600160a01b038381165f908152600160205260409020548116908316146112255760405162461bcd60e51b815260040161047190611dd5565b6001600160a01b038281165f81815260016020526040808220805488861684528284208054919096166001600160a01b0319918216179095558383528054909416909355915190917ff8d49fc529812e9a7c5c50e69c20f0dccc0db8fa95c98bc58cc9a4f1c1299eaf91a280600354146112ec575f811180156112aa57506002548111155b6112c65760405162461bcd60e51b815260040161047190611cf4565b60038190556040518181525f516020611e7e5f395f51905f529060200160405180910390a15b505050565b81516112fe826020611e09565b11156113345760405162461bcd60e51b815260206004820152600560248201526423a998191960d91b6044820152606401610471565b5f60208284010151905082518183602061134e9190611e09565b6113589190611e09565b111561138e5760405162461bcd60e51b8152602060048201526005602482015264475330323360d81b6044820152606401610471565b606060208385010190505f5f876001600160a01b03166320c13b0b60e01b88856040516024016113bf929190611e1c565b60408051601f198184030181529181526020820180516001600160e01b03166001600160e01b03199094169390931790925290516113fd9190611e34565b5f60405180830381855afa9150503d805f8114611435576040519150601f19603f3d011682016040523d82523d5f602084013e61143a565b606091505b509150915081801561144e57506020815110155b61146a5760405162461bcd60e51b815260040161047190611e4a565b60208101516001600160e01b031981166320c13b0b60e01b1461149f5760405162461bcd60e51b815260040161047190611e4a565b505050505050505050565b5f60018360018111156114bf576114bf611e69565b0361158657811561152757856001600160a01b031682856040516114e39190611e34565b5f604051808303818686f4925050503d805f811461151c576040519150601f19603f3d011682016040523d82523d5f602084013e611521565b606091505b5061157e565b856001600160a01b03168460405161153f9190611e34565b5f60405180830381855af49150503d805f8114611577576040519150601f19603f3d011682016040523d82523d5f602084013e61157c565b606091505b505b50905061164b565b81156115ed57856001600160a01b0316858390866040516115a79190611e34565b5f60405180830381858888f193505050503d805f81146115e2576040519150601f19603f3d011682016040523d82523d5f602084013e6115e7565b606091505b50611647565b856001600160a01b031685856040516116069190611e34565b5f6040518083038185875af1925050503d805f8114611640576040519150601f19603f3d011682016040523d82523d5f602084013e611645565b606091505b505b5090505b95945050505050565b634e487b7160e01b5f52604160045260245ffd5b5f82601f830112611677575f5ffd5b81356001600160401b0381111561169057611690611654565b604051601f8201601f19908116603f011681016001600160401b03811182821017156116be576116be611654565b6040528181528382016020018510156116d5575f5ffd5b816020850160208301375f918101602001919091529392505050565b5f60208284031215611701575f5ffd5b81356001600160401b03811115611716575f5ffd5b61172284828501611668565b949350505050565b6001600160a01b038116811461173e575f5ffd5b50565b803561174c8161172a565b919050565b5f5f60408385031215611762575f5ffd5b823561176d8161172a565b946020939093013593505050565b5f5f83601f84011261178b575f5ffd5b5081356001600160401b038111156117a1575f5ffd5b6020830191508360208285010111156117b8575f5ffd5b9250929050565b5f5f5f604084860312156117d1575f5ffd5b8335925060208401356001600160401b038111156117ed575f5ffd5b6117f98682870161177b565b9497909650939450505050565b5f5f5f5f60808587031215611819575f5ffd5b84356118248161172a565b93506020850135925060408501356001600160401b03811115611845575f5ffd5b61185187828801611668565b949793965093946060013593505050565b5f60208284031215611872575f5ffd5b813561187d8161172a565b9392505050565b5f60208284031215611894575f5ffd5b5035919050565b80356002811061174c575f5ffd5b5f5f5f5f5f5f5f5f5f5f5f6101408c8e0312156118c4575f5ffd5b6118cd8c611741565b9a5060208c0135995060408c01356001600160401b038111156118ee575f5ffd5b6118fa8e828f0161177b565b909a50985061190d905060608d0161189b565b965060808c0135955060a08c0135945060c08c0135935061193060e08d01611741565b925061193f6101008d01611741565b91506101208c01356001600160401b0381111561195a575f5ffd5b6119668e828f01611668565b9150509295989b509295989b9093969950565b602080825282518282018190525f918401906040840190835b818110156119b95783516001600160a01b0316835260209384019390920191600101611992565b509095945050505050565b5f5f5f5f5f5f5f5f5f5f6101008b8d0312156119de575f5ffd5b8a356001600160401b038111156119f3575f5ffd5b8b01601f81018d13611a03575f5ffd5b80356001600160401b03811115611a18575f5ffd5b8d60208260051b8401011115611a2c575f5ffd5b60209182019b5099508b01359750611a4660408c01611741565b965060608b01356001600160401b03811115611a60575f5ffd5b611a6c8d828e0161177b565b9097509550611a7f905060808c01611741565b9350611a8d60a08c01611741565b925060c08b01359150611aa260e08c01611741565b90509295989b9194979a5092959850565b5f5f5f5f5f5f5f5f5f5f5f6101408c8e031215611ace575f5ffd5b8b35611ad98161172a565b9a5060208c0135995060408c01356001600160401b03811115611afa575f5ffd5b611b068e828f0161177b565b909a509850611b19905060608d0161189b565b965060808c0135955060a08c0135945060c08c0135935060e08c0135611b3e8161172a565b92506101008c0135611b4f8161172a565b809250505f6101208d01359050809150509295989b509295989b9093969950565b5f5f5f60608486031215611b82575f5ffd5b8335611b8d8161172a565b92506020840135611b9d8161172a565b91506040840135611bad8161172a565b809150509250925092565b5f5f5f60608486031215611bca575f5ffd5b8335611bd58161172a565b92506020840135915060408401356001600160401b03811115611bf6575f5ffd5b611c0286828701611668565b9150509250925092565b5f5f5f60608486031215611c1e575f5ffd5b8335611c298161172a565b92506020840135611c398161172a565b929592945050506040919091013590565b5f81518084528060208401602086015e5f602082860101526020601f19601f83011685010191505092915050565b602081525f61187d6020830184611c4a565b602080825260059082015264475332303360d81b604082015260600190565b60208082526005908201526411d4cc8c0d60da1b604082015260600190565b634e487b7160e01b5f52601160045260245ffd5b5f60018201611ced57611ced611cc8565b5060010190565b602080825260059082015264475332303160d81b604082015260600190565b808202811582820484141761094657610946611cc8565b60ff828116828216039081111561094657610946611cc8565b8181038181111561094657610946611cc8565b634e487b7160e01b5f52603260045260245ffd5b608080825281018590525f8660a08301825b88811015611dac578235611d8f8161172a565b6001600160a01b0316825260209283019290910190600101611d7c565b50602084019690965250506001600160a01b039283166040820152911660609091015292915050565b602080825260059082015264475332303560d81b604082015260600190565b5f81611e0257611e02611cc8565b505f190190565b8082018082111561094657610946611cc8565b828152604060208201525f6117226040830184611c4a565b5f82518060208501845e5f920191825250919050565b60208082526005908201526411d4cc0c8d60da1b604082015260600190565b634e487b7160e01b5f52602160045260245ffdfe610f7ff2b304ae8903c3de74c60c6ab1f7d6226b3f52c5161905bb5ad4039c93a2646970667358221220a32e396d98896c1b03fb635dfc2a55845167002e1113dbd784e94b182613024e64736f6c634300081e0033",
    "linkReferences": {}
  },
  "methodIdentifiers": {
    "VERSION()": "ffa1ad74",
    "addOwnerWithThreshold(address,uint256)": "0d582f13",
    "changeThreshold(uint256)": "694e80c3",
    "checkNSignatures(address,bytes32,bytes,uint256)": "1fcac7f3",
    "checkSignatures(address,bytes32,bytes)": "f855438b",
    "domainSeparator()": "f698da25",
    "execTransaction(address,uint256,bytes,uint8,uint256,uint256,uint256,address,address,bytes)": "6a761202",
    "getMessageHash(bytes)": "0a1028c4",
    "getOwners()": "a0e67e2b",
    "getThreshold()": "e75235b8",
    "getTransactionHash(address,uint256,bytes,uint8,uint256,uint256,uint256,address,address,uint256)": "d8d11f78",
    "isOwner(address)": "2f54bf6e",
    "isValidSignature(bytes32,bytes)": "1626ba7e",
    "nonce()": "affed0e0",
    "removeOwner(address,address,uint256)": "f8dc5dd9",
    "setup(address[],uint256,address,bytes,address,address,uint256,address)": "b63e800d",
    "signedMessages(bytes32)": "5ae6bd37",
    "swapOwner(address,address,address)": "e318b52b"
  },
  "id": 6
}