{
  "abi": [
    {
      "type": "function",
      "name": "createProxyWithNonce",
      "inputs": [
        {
          "name": "_singleton",
          "type": "address",
          "internalType": "address"
        },
        {
          "name": "initializer",
          "type": "bytes",
          "internalType": "bytes"
        },
        {
          "name": "saltNonce",
          "type": "uint256",
          "internalType": "uint256"
        }
      ],
      "outputs": [
        {
          "name": "proxy",
          "type": "address",
          "internalType": "contract SafeMockProxy"
        }
      ],
      "stateMutability": "nonpayable"
    },
    {
      "type": "function",
      "name": "proxyCreationCode",
      "inputs": [],
      "outputs": [
        {
          "name": "",
          "type": "bytes",
          "internalType": "bytes"
        }
      ],
      "stateMutability": "pure"
    },
    {
      "type": "function",
      "name": "proxyCreationCodehash",
      "inputs": [
        {
          "name": "_singleton",
          "type": "address",
          "internalType": "address"
        }
      ],
      "outputs": [
        {
          "name": "",
          "type": "bytes32",
          "internalType": "bytes32"
        }
      ],
      "stateMutability": "pure"
    },
    {
      "type": "event",
      "name": "ProxyCreation",
      "inputs": [
        {
          "name": "proxy",
          "type": "address",
          "indexed": true,
          "internalType": "contract SafeMockProxy"
        },
        {
          "name": "singleton",
          "type": "address",
          "indexed": false,
          "internalType": "address"
        }
      ],
      "anonymous": false
    }
  ],
  "bytecode": {
    "object": "0x6080604052348015600e575f5ffd5b506105f28061001c5f395ff3fe608060405234801561000f575f5ffd5b506004361061003f575f3560e01c80631688f0b9146100435780631fdac6c51461007357806353e5d93514610094575b5f5ffd5b610056610051366004610322565b6100a9565b6040516001600160a01b0390911681526020015b60405180910390f35b6100866100813660046103ef565b61013d565b60405190815260200161006a565b61009c610198565b60405161006a919061040f565b5f5f8380519060200120836040516020016100ce929190918252602082015260400190565b6040516020818303038152906040528051906020012090506100f18585836101c2565b6040516001600160a01b038781168252919350908316907f4f51faf6c4561ff95f067657e43439f0f856d97c04d9ec9070a6199ad418e2359060200160405180910390a2509392505050565b5f6040518060200161014e906102e6565b601f1982820381018352601f90910116604081905261017b91906001600160a01b03851690602001610444565b604051602081830303815290604052805190602001209050919050565b6060604051806020016101aa906102e6565b601f1982820381018352601f90910116604052919050565b5f833b6102165760405162461bcd60e51b815260206004820152601f60248201527f53696e676c65746f6e20636f6e7472616374206e6f74206465706c6f7965640060448201526064015b60405180910390fd5b5f60405180602001610227906102e6565b601f1982820381018352601f90910116604081905261025491906001600160a01b03881690602001610444565b6040516020818303038152906040529050828151826020015ff591506001600160a01b0382166102bc5760405162461bcd60e51b815260206004820152601360248201527210dc99585d194c8818d85b1b0819985a5b1959606a1b604482015260640161020d565b8351156102de575f5f8551602087015f865af16102de576040513d5f823e3d81fd5b509392505050565b61015e8061045f83390190565b80356001600160a01b0381168114610309575f5ffd5b919050565b634e487b7160e01b5f52604160045260245ffd5b5f5f5f60608486031215610334575f5ffd5b61033d846102f3565b9250602084013567ffffffffffffffff811115610358575f5ffd5b8401601f81018613610368575f5ffd5b803567ffffffffffffffff8111156103825761038261030e565b604051601f8201601f19908116603f0116810167ffffffffffffffff811182821017156103b1576103b161030e565b6040528181528282016020018810156103c8575f5ffd5b816020840160208301375f9181016020019190915293969395505050506040919091013590565b5f602082840312156103ff575f5ffd5b610408826102f3565b9392505050565b602081525f82518060208401528060208501604085015e5f604082850101526040601f19601f83011684010191505092915050565b5f83518060208601845e919091019182525060200191905056fe6080604052348015600e575f5ffd5b5060405161015e38038061015e833981016040819052602b9160b2565b6001600160a01b038116608f5760405162461bcd60e51b815260206004820152602260248201527f496e76616c69642073696e676c65746f6e20616464726573732070726f766964604482015261195960f21b606482015260840160405180910390fd5b5f80546001600160a01b0319166001600160a01b039290921691909117905560dd565b5f6020828403121560c1575f5ffd5b81516001600160a01b038116811460d6575f5ffd5b9392505050565b6075806100e95f395ff3fe60806040525f5463a619486e5f3560e01c036021578060601b606c5260206060f35b365f5f375f5f365f845af490503d5f5f3e80603a573d5ffd5b503d5ff3fea264697066735822122092b79f924257fbc81888545a6df62d31c2a4378962fb65d05588cb297d7fd91064736f6c634300081e0033a2646970667358221220b39ad41a18037c3863973886c05d6c76a499928d90e1f191b3900ab374be4ded64736f6c634300081e0033",
    "linkReferences": {}
  },
  "methodIdentifiers": {
    "createProxyWithNonce(address,bytes,uint256)": "1688f0b9",
    "proxyCreationCode()": "53e5d935",
    "proxyCreationCodehash(address)": "1fdac6c5"
  },
  "id": 5
}